:1000000010C90320C1F5020081460100CDF50200B0
:10001000CDF50200CDF50200CDF502000000000094
:10002000000000000000000000000000CDF502000C
:10003000CDF5020000000000E9760200E177020041
:10004000AD8F020091A2010091A2010091A20100D6
:1000500091A2010021340200FF3402009DA402009D
:10006000BFA402003BAF010093AE010003AF01004B
:10007000CBAE01001D750100B54802007F470200AC
:1000800041480200C1460200B54802007F47020015
:1000900041480200C1460200FF640200FF64020002
:1000A0005D650200D7650200917102008B7202004B
:0C00B0005773020059A10200E5A00200F5
:10040000FFFFFFFFFFFDFFFFFFFFFFFFFFFFFFFFFE
:10041000FFFFFFFFFFFFFFFFFFFFFFFFFFFFFFFFEC
:10042000FFFFFFFFFFFFFFFFFFFFFFFFFFFFFFFFDC
:0C043000FFFFFFFFFFFFFFFFFFFFFFFFCC
:10400000EC6A01204B002010B0670320200007005D
:10401000AC6703202104070068180120220807006C
:10402000DC430120230C0700D843012030000400AA
:10403000D4430120310004085C6B02200D000660AF
:10404000606B02200E0006689818012070081500A9
:104050008C1801206D081508941801206F081510A0
:10406000901801206E081518EC4301204A00281012
:104070006418012095151408581801209215141081
:1040800060180120941514205C1801209315142841
:1040900054180120A11D1408481801209E1D141059
:1040A00050180120A01D14204C1801209F1D142819
:1040B00088180120C7013400E0430120CB053400FB
:1040C000E8430120CD053408E4430120CC05341831
:1040D0001C6B012075003600206B01207300360830
:1040E000246B012072003610B86703206100331082
:1040F000B46703207301332101000100A8BA020054
:10410000060000000101010101010000A689000074
:1041100002000200C4BA020006010100010101010F
:1041200001010000A689000003000300E0BA0200BC
:10413000060202000101010101010000A689000040
:1041400004000400FCBA020006030300010101019F
:1041500001010000A68900000500050018BB02004F
:10416000060404000101010101010000A68900000C
:104170000600060034BB020006050500010101012E
:1041800001010000A68900000700070050BB0200E3
:10419000060606000101010101010000A6890000D8
:1041A000080008006CBB02000607070001010101BE
:1041B00001010000A68900000900090088BB020077
:1041C000060808000101010101010000A6890000A4
:1041D0000A000A00A4BB020006090900010101014E
:1041E00001010000A68900000B000B00C0BB02000B
:1041F000060A0A000101010101010000A689000070
:104200000C000C00DCBB0200060B0B0001010101DD
:1042100001010000A68900000D000D00F8BB02009E
:10422000060C0C000101010101010000A68900003B
:104230000E000E0014BC0200060D0D00010101016C
:1042400001010000A68900000F000F0030BC020031
:10425000060E0E000101010101010000A689000007
:10426000100010004CBC0200060F0F0001010101FC
:1042700001010000A68900002000200068BC0200A7
:1042800007000000010100000000000080EB0200B8
:104290002100210084BC0200070100000101000090
:1042A0000000000090EB020022002200A0BC0200EF
:1042B00007020000010100000000000084E9020084
:1042C00023002300BCBC0200070300000101000022
:1042D000000000009CE6020024002400D8BC02007C
:1042E000070400000101000000000000A689000092
:1042F00025002500F4BC02000705000001010000B4
:1043000000000000A68900002600260010BD020063
:10431000070600000101000000000000A68900005F
:10432000270027002CBD0200070700000101000044
:1043300000000000A68900002900290048BD0200F5
:10434000080000000100000100000000A689000034
:104350002A002A0064BD020008000100FFFFFFFFE1
:10436000FFFF0000A68900002D002D0080BD020087
:10437000060010000100000100000000A6890000F6
:10438000300030009CBD020004000000010000006D
:1043900000000000A689000031003100B8BD020015
:1043A000040001000100000000000000A6890000D8
:1043B00038003800D4BD02000301020001000001F2
:1043C00001010000A689000039003900F0BD02009B
:1043D000030203000100000101010000A6890000A2
:1043E0003B003B000CBE0200030000000100000087
:1043F00000000000A68900003C003C0028BE02002E
:10440000030001000001000000000000A689000078
:104410004000400044BE02002F00020001010100E4
:1044200000000000A68900004100410060BE0200BB
:104430002F0000000101000000000000A68900001C
:10444000420042007CBE02002F000100010100007A
:1044500000000000A68900004300430098BE02004F
:104460002F0102000101010101010000A6890000E5
:1044700044004400B4BE02002F010000010101010C
:1044800000000000A689000045004500D0BE0200E3
:104490002F0101000101010100000000A6890000B8
:1044A00046004600ECBE02002A00000001000001A8
:1044B00001000000A68900004700470008BF020075
:1044C000290000000100000000000000A689000093
:1044D0004800480024BF020028000000010000013D
:1044E00001010000A68900004900490040BF020008
:1044F000280001000100000101010000A689000060
:104500004A004A005CBF02002800020001000000CF
:1045100000000000A68900004B004B0078BF02009D
:10452000200002000101010000000000A689000037
:104530004C004C0094BF0200200003000101010068
:1045400000000000A68900004D004D00B0BF020031
:10455000200004000100000000000000A689000007
:104560004E004E00CCBF02002000050001000000FC
:1045700000000000A68900004F004F00E8BF0200C5
:10458000200000000001010100000000A6890000D9
:104590005000500004C00200200001000001010191
:1045A00000000000A68900005100510020C0020058
:1045B000200102000101010000000000A6890000A6
:1045C000520052003CC00200200103000101010022
:1045D00000000000A68900005300530058C00200EC
:1045E000200104000100000000000000A689000076
:1045F0005400540074C002002001050001000000B6
:1046000000000000A68900005500550090C002007F
:10461000200100000001010100000000A689000047
:1046200056005600ACC0020020010100000101014B
:1046300000000000A689000057005700C8C0020013
:10464000240000000100000101000000A689000014
:1046500058005800E4C002002401000001000000DE
:1046600000000000A68900005900590000C10200A6
:10467000240200000100000000000000A6890000E4
:104680005A005A001CC1020024030000010000006F
:1046900000000000A68900005B005B0038C102003A
:1046A000240400000100000000000000A6890000B2
:1046B0005C005C0054C10200240500000100000001
:1046C00000000000A68900005F005F0070C10200CA
:1046D000330000000101010000000000A689000075
:1046E000600060008CC10200330001000101010084
:1046F00000000000A689000061006100A8C102005E
:10470000330002000100000000000000B4E60200D7
:1047100062006200C4C10200330003000100000116
:1047200001010000A689000063006300E0C10200EF
:10473000150001000101010000000000A689000031
:1047400064006400FCC102001500030001010100C7
:1047500000000000A68900006500650018C2020084
:10476000150002000100000000000000A689000002
:104770006600660034C2020015000000010000005F
:1047800000000000A68900006700670050C2020018
:10479000150004000100000100000000A6890000CF
:1047A000680068006CC202001501010001010100EF
:1047B00000000000A68900006900690088C20200AC
:1047C000150103000101010000000000A68900009E
:1047D0006A006A00A4C20200150102000100000084
:1047E00000000000A68900006B006B00C0C2020040
:1047F000150100000100000000000000A689000073
:104800006D006D00DCC20200150201000101010013
:1048100000000000A0EB02006E006E00F8C2020073
:10482000150203000101010000000000B0EB0200CE
:104830006F006F0014C302001502020001000000A7
:1048400000000000C0EB02007000700030C30200E6
:10485000150200000100000000000000D0EB020083
:10486000720072004CC30200360002000101010018
:1048700000000000E0EB02007300730068C3020058
:10488000360001000101010000000000F0EB020011
:104890007500750084C302003600000001000000AE
:1048A0000000000000EC020078007800A0C30200C5
:1048B000360103000101010000000000A68900008C
:1048C00079007900BCC3020036010000010000003D
:1048D00000000000A68900007A007A00D8C3020018
:1048E000350001000101010000000000A689000060
:1048F0007B007B00F4C302003500020001010100CF
:1049000000000000A68900007C007C0010C40200AA
:10491000350003000100000000000000A68900002F
:104920007D007D002CC40200350004000100000061
:1049300000000000A68900007E007E0048C402003E
:10494000350000000100000000000000A689000002
:104950007F007F0064C402004200020001010100E8
:1049600000000000A68900008000800080C40200D2
:10497000420000000100000000000000A6890000C5
:10498000810081009CC4020042000100010000007F
:1049900000000000A689000082008200B8C4020066
:1049A000170002000101010000000000A6890000BC
:1049B00083008300D4C4020017000100010101003C
:1049C00000000000A689000084008400F0C40200FA
:1049D000170000000100000100000000A68900008F
:1049E000850085000CC502001000000001000001D8
:1049F00001000000A68900008600860028C502008C
:104A0000120000000100000100000000A689000063
:104A10008700870044C5020011000000010000006B
:104A200000000000A68900008800880060C5020020
:104A3000110001000100000000000000A689000034
:104A4000890089007CC502001100020001000000FD
:104A500000000000A68900008A008A0098C50200B4
:104A6000300000000100000000000000A6890000E6
:104A70008B008B00B4C50200300001000100000073
:104A800000000000A68900008C008C00D0C5020048
:104A9000300002000100000000000000A6890000B4
:104AA0008D008D00ECC50200300003000100000005
:104AB00000000000A68900008E008E0008C60200DB
:104AC000300004000100000000000000A689000082
:104AD0008F008F0024C6020030010000010000009A
:104AE00000000000A68900009000900040C602006F
:104AF000300101000100000000000000A689000054
:104B0000910091005CC6020030010200010000002B
:104B100000000000A68900009200920078C6020002
:104B2000300103000100000000000000A689000021
:104B30009300930094C602003001040001000000BD
:104B400000000000A689000094009400B0C6020096
:104B5000090000000101010000000000A68900001A
:104B600095009500CCC6020009000100010101007A
:104B700000000000A689000096009600E8C602002A
:104B8000090002000101010000000000A6890000E8
:104B90009700970004C7020009000300010101000B
:104BA00000000000A68900009800980020C70200BD
:104BB0000B0000000101000000000000A6890000B9
:104BC000990099003CC702000B00010001010000A0
:104BD00000000000A68900009A009A0058C7020051
:104BE0002C0000000100000000000000A689000069
:104BF0009B009B0074C702002C0100000100000014
:104C000000000000A68900009C009C0090C70200E4
:104C10002C0200000100000000000000A689000036
:104C20009D009D00ACC702002C03000001000000A5
:104C300000000000A6890000B000B000C8C7020054
:104C40002B0000000101010000000000A689000007
:104C5000B100B100E4C702002B0001000101010016
:104C600000000000A6890000B200B20000C80200E7
:104C70002B0002000101010000000000A6890000D5
:104C8000B300B3001CC802002B00030001010100A7
:104C900000000000A6890000B400B40038C802007B
:104CA0002B0004000101010000000000A6890000A3
:104CB000B500B50054C802002B0005000101010039
:104CC00000000000A6890000B600B60070C802000F
:104CD0002B0006000101010000000000A689000071
:104CE000B700B7008CC802002B00070001010100CB
:104CF00000000000A6890000B800B800A8C80200A3
:104D00002B0008000101010000000000A68900003E
:104D1000B900B900C4C802002B000900010101005C
:104D200000000000A6890000BA00BA00E0C8020036
:104D30002B0100000101010000000000A689000015
:104D4000BB00BB00FCC802002B01010001010100F7
:104D500000000000A6890000BC00BC0018C90200C9
:104D60002B0102000101010000000000A6890000E3
:104D7000BD00BD0034C902002B0103000101010088
:104D800000000000A6890000BE00BE0050C902005D
:104D90002B0104000101010000000000A6890000B1
:104DA000BF00BF006CC902002B010500010101001A
:104DB00000000000A6890000C000C00088C90200F1
:104DC0002B0106000101010000000000A68900007F
:104DD000C100C100A4C902002B01070001010100AC
:104DE00000000000A6890000C200C200C0C9020085
:104DF0002B0108000101010000000000A68900004D
:104E0000C300C300DCC902002B010900010101003D
:104E100000000000A6890000C400C400F8C9020018
:104E20002B0200000101010000000000A689000023
:104E3000C500C50014CA02002B02010001010100D7
:104E400000000000A6890000C600C60030CA0200AB
:104E50002B0202000101010000000000A6890000F1
:104E6000C700C7004CCA02002B0203000101010069
:104E700000000000A6890000C800C80068CA02003F
:104E80002B0204000101010000000000A6890000BF
:104E9000C900C90084CA02002B02050001010100FB
:104EA00000000000A6890000CA00CA00A0CA0200D3
:104EB0002B0206000101010000000000A68900008D
:104EC000CB00CB00BCCA02002B020700010101008D
:104ED00000000000A6890000CC00CC00D8CA020067
:104EE0002B0208000101010000000000A68900005B
:104EF000CD00CD00F4CA02002B020900010101001F
:104F000000000000A6890000CE00CE0010CB0200F9
:104F10002B0300000101010000000000A689000031
:104F2000CF00CF002CCB02002B03010001010100B8
:104F300000000000A6890000D000D00048CB02008D
:104F40002B0302000101010000000000A6890000FF
:104F5000D100D10064CB02002B030300010101004A
:104F600000000000A6890000D200D20080CB020021
:104F70002B0304000101010000000000A6890000CD
:104F8000D300D3009CCB02002B03050001010100DC
:104F900000000000A6890000D400D400B8CB0200B5
:104FA0002B0306000101010000000000A68900009B
:104FB000D500D500D4CB02002B030700010101006E
:104FC00000000000A6890000D600D600F0CB020049
:104FD0002B0308000101010000000000A689000069
:104FE000D700D7000CCC02002B03090001010100FF
:104FF00000000000A6890000D800D80028CC0200DC
:105000002B0400000101010000000000A68900003F
:10501000D900D90044CC02002B0401000101010099
:1050200000000000A6890000DA00DA0060CC02006F
:105030002B0402000101010000000000A68900000D
:10504000DB00DB007CCC02002B040300010101002B
:1050500000000000A6890000DC00DC0098CC020003
:105060002B0404000101010000000000A6890000DB
:10507000DD00DD00B4CC02002B04050001010100BD
:1050800000000000A6890000DE00DE00D0CC020097
:105090002B0406000101010000000000A6890000A9
:1050A000DF00DF00ECCC02002B040700010101004F
:1050B00000000000A6890000E000E00008CD02002A
:1050C0002B0408000101010000000000A689000077
:1050D000E100E10024CD02002B04090001010100E0
:1050E00000000000A6890000E200E20040CD0200BE
:1050F0002B0500000101010000000000A68900004E
:10510000E300E3005CCD02002B050100010101007A
:1051100000000000A6890000E400E40078CD020051
:105120002B0502000101010000000000A68900001B
:10513000E500E50094CD02002B050300010101000C
:1051400000000000A6890000E600E600B0CD0200E5
:105150002B0504000101010000000000A6890000E9
:10516000E700E700CCCD02002B050500010101009E
:1051700000000000A6890000E800E800E8CD020079
:105180002B0506000101010000000000A6890000B7
:10519000E900E90004CE02002B050700010101002F
:1051A00000000000A6890000EA00EA0020CE02000C
:1051B0002B0508000101010000000000A689000085
:1051C000EB00EB003CCE02002B05090001010100C1
:1051D00000000000A6890000EC00EC0058CE0200A0
:1051E0002B0600000101010000000000A68900005C
:1051F000ED00ED0074CE02002B060100010101005C
:1052000000000000A6890000EE00EE0090CE020033
:105210002B0602000101010000000000A689000029
:10522000EF00EF00ACCE02002B06030001010100ED
:1052300000000000A6890000F000F000C8CE0200C7
:105240002B0604000101010000000000A6890000F7
:10525000F100F100E4CE02002B060500010101007F
:1052600000000000A6890000F200F20000CF02005A
:105270002B0606000101010000000000A6890000C5
:10528000F300F3001CCF02002B0607000101010010
:1052900000000000A6890000F400F40038CF0200EE
:1052A0002B0608000101010000000000A689000093
:1052B000F500F50054CF02002B06090001010100A2
:1052C00000000000A6890000F600F60070CF020082
:1052D0002B0700000101010000000000A68900006A
:1052E000F700F7008CCF02002B070100010101003D
:1052F00000000000A6890000F800F800A8CF020016
:105300002B0702000101010000000000A689000037
:10531000F900F900C4CF02002B07030001010100CE
:1053200000000000A6890000FA00FA00E0CF0200A9
:105330002B0704000101010000000000A689000005
:10534000FB00FB00FCCF02002B0705000101010060
:1053500000000000A6890000FC00FC0018D002003C
:105360002B0706000101010000000000A6890000D3
:10537000FD00FD0034D002002B07070001010100F1
:1053800000000000A6890000FE00FE0050D00200D0
:105390002B0708000101010000000000A6890000A1
:1053A000FF00FF006CD002002B0709000101010083
:1053B00000000000A68900000001000188D0020062
:1053C0002B0800000101010000000000A689000078
:1053D00001010101A4D002002B080100010101001C
:1053E00000000000A689000002010201C0D00200F6
:1053F0002B0802000101010000000000A689000046
:1054000003010301DCD002002B08030001010100AD
:1054100000000000A689000004010401F8D0020089
:105420002B0804000101010000000000A689000013
:105430000501050114D102002B080500010101003E
:1054400000000000A68900000601060130D102001C
:105450002B0806000101010000000000A6890000E1
:10546000070107014CD102002B08070001010100D0
:1054700000000000A68900000A010A0168D10200AC
:105480002B0908000101010000000000A6890000AE
:105490000B010B0184D102002B090900010101005D
:1054A00000000000A68900000C010C01A0D1020040
:1054B0002B0902000101010000000000A689000084
:1054C0000D010D01BCD102002B09030001010100F7
:1054D00000000000A68900000E010E01D8D10200D4
:1054E0002B0904000101010000000000A689000052
:1054F0000F010F01F4D102002B0905000101010089
:1055000000000000A68900001001100110D2020066
:105510002B0906000101010000000000A68900001F
:10552000110111012CD202002B0907000101010019
:1055300000000000A68900001401140148D20200F6
:105540002B0A00000101010000000000A6890000F4
:105550001501150164D202002B0A010001010100AE
:1055600000000000A68900001601160180D202008A
:105570002B0A02000101010000000000A6890000C2
:10558000170117019CD202002B0A03000101010040
:1055900000000000A689000018011801B8D202001E
:1055A0002B0A04000101010000000000A689000090
:1055B00019011901D4D202002B0A050001010100D2
:1055C00000000000A68900001A011A01F0D20200B2
:1055D0002B0A06000101010000000000A68900005E
:1055E0001B011B010CD302002B0A07000101010063
:1055F00000000000A68900001E011E0128D3020041
:105600002B0B00000101010000000000A689000032
:105610001F011F0144D302002B0B010001010100F7
:1056200000000000A68900002001200160D30200D4
:105630002B0B02000101010000000000A689000000
:10564000210121017CD302002B0B03000101010089
:1056500000000000A68900002201220198D3020068
:105660002B0B04000101010000000000A6890000CE
:1056700023012301B4D302002B0B0500010101001B
:1056800000000000A689000024012401D0D30200FC
:105690002B0B06000101010000000000A68900009C
:1056A00025012501ECD302002B0B070001010100AD
:1056B00000000000A68900002801280108D402008B
:1056C0002B0C00000101010000000000A689000071
:1056D0002901290124D402002B0C01000101010041
:1056E00000000000A68900002A012A0140D402001F
:1056F0002B0C02000101010000000000A68900003F
:105700002B012B015CD402002B0C030001010100D2
:1057100000000000A68900002C012C0178D40200B2
:105720002B0C04000101010000000000A68900000C
:105730002D012D0194D402002B0C05000101010064
:1057400000000000A68900002E012E01B0D4020046
:105750002B0C06000101010000000000A6890000DA
:105760002F012F01CCD402002B0C070001010100F6
:1057700000000000A689000032013201E8D40200D6
:105780002B0D00000101010000000000A6890000AF
:105790003301330104D502002B0D0100010101008A
:1057A00000000000A68900003401340120D5020069
:1057B0002B0D02000101010000000000A68900007D
:1057C000350135013CD502002B0D0300010101001C
:1057D00000000000A68900003601360158D50200FD
:1057E0002B0D04000101010000000000A68900004B
:1057F0003701370174D502002B0D050001010100AE
:1058000000000000A68900003801380190D5020090
:105810002B0D06000101010000000000A689000018
:1058200039013901ACD502002B0D0700010101003F
:1058300000000000A689000050015001C8D50200F8
:105840002D000A000100000000000000A6890000F1
:1058500060016001E4D50200410000000101010087
:1058600000000000A68900006101610100D602006D
:10587000410001000100000000000000A6890000B6
:10588000620162011CD6020041000200010000001A
:1058900000000000A68900006301630138D6020001
:1058A000400000000100000000000000A689000088
:1058B0006401640154D602004001000001000000B0
:1058C00000000000A68900006501650170D6020095
:1058D00041000300FFFFFFFFFFFF0000A68900005B
:1058E000660166018CD6020041000400FFFFFFFF45
:1058F000FFFF0000A689000067016701A8D602002B
:1059000041000500FFFFFFFFFFFF0000A689000028
:1059100068016801C4D6020041000600FFFFFFFFD6
:10592000FFFF0000A689000069016901E0D60200BE
:1059300041000700FFFFFFFFFFFF0000A6890000F6
:105940006A016A01FCD6020041000800FFFFFFFF68
:10595000FFFF0000A68900006B016B0118D7020051
:1059600041000900FFFFFFFFFFFF0000A6890000C4
:105970006C016C0134D7020041000A00FFFFFFFFF9
:10598000FFFF0000A68900006D016D0150D70200E5
:1059900041000B00FFFFFFFFFFFF0000A689000092
:1059A0006E016E016CD7020041000C00FFFFFFFF8B
:1059B000FFFF0000A68900006F016F0188D7020079
:1059C00041000D00FFFFFFFFFFFF0000A689000060
:1059D00070017001A4D7020041000E00FFFFFFFF1D
:1059E000FFFF0000A689000071017101C0D702000D
:1059F000330000010101010000000000A689000041
:105A000072017201DCD702003300010101010100C3
:105A100000000000A689000073017301F8D702009E
:105A2000330002010100000101000000A68900000E
:105A30007401740114D80200140002000101010075
:105A400000000000A68900007501750130D8020031
:105A5000140005000101010000000000A6890000FB
:105A6000760176014CD80200140004000100000009
:105A700000000000A68900007701770168D80200C5
:105A8000140001000100000000000000A6890000D1
:105A90007801780184D802001400000001000001A0
:105AA00000000000A689000079017901A0D8020059
:105AB000140003000000000100000000A68900009F
:105AC0007A017A01BCD80200140102000101010030
:105AD00000000000A68900007B017B01D8D80200ED
:105AE000140105000101010000000000A68900006A
:105AF0007C017C01F4D802001401040001000000C4
:105B000000000000A68900007D017D0110D902007F
:105B1000140101000100000000000000A68900003F
:105B20007E017E012CD9020014010000010000005A
:105B300000000000A68900008001800148D9020011
:105B4000140202000101010000000000A68900000B
:105B50008101810164D902001402050001010100E4
:105B600000000000A68900008201820180D90200A5
:105B7000140204000100000000000000A6890000DB
:105B8000830183019CD9020014020100010000007E
:105B900000000000A689000084018401B8D9020039
:105BA000140200000100000000000000A6890000AF
:105BB00086018601D4D9020014030200010101000C
:105BC00000000000A689000087018701F0D90200CB
:105BD000140305000101010000000000A689000077
:105BE000880188010CDA020014030400010000009F
:105BF00000000000A68900008901890128DA02005E
:105C0000140301000100000000000000A68900004C
:105C10008A018A0144DA0200140300000100000036
:105C200000000000A68900008C018C0160DA0200EF
:105C3000140402000101010000000000A689000018
:105C40008D018D017CDA02001404050001010100C0
:105C500000000000A68900008E018E0198DA020083
:105C6000140404000100000000000000A6890000E8
:105C70008F018F01B4DA020014040100010000005A
:105C800000000000A689000090019001D0DA020017
:105C9000140400000100000000000000A6890000BC
:105CA00092019201ECDA02001405020001010100E8
:105CB00000000000F0F602009301930108DB0200EF
:105CC000140505000101010000000000FCF60200BF
:105CD0009401940124DB020014050400010000007B
:105CE0000000000008F702009501950140DB02006A
:105CF00014050100010000000000000014F702007C
:105D0000960196015CDB0200140500000100000012
:105D100000000000A68900009801980178DB0200CD
:105D2000140602000101010000000000A689000025
:105D30009901990194DB020014060500010101009C
:105D400000000000A68900009A019A01B0DB020061
:105D5000140604000100000000000000A6890000F5
:105D60009B019B01CCDB0200140601000100000036
:105D700000000000A68900009C019C01E8DB0200F5
:105D8000140600000100000000000000A6890000C9
:105D90009E019E0104DC02001407020001010100C3
:105DA0000000000020F702009F019F0120DC02009C
:105DB0001407050001010100000000002CF702009B
:105DC000A001A0013CDC0200140704000100000057
:105DD0000000000038F70200A101A10158DC020018
:105DE00014070100010000000000000044F7020059
:105DF000A201A20174DC02001407000001000000EF
:105E000000000000A6890000A401A40190DC0200AB
:105E1000140802000101010000000000A689000032
:105E2000A501A501ACDC0200140805000101010078
:105E300000000000A6890000A601A601C8DC02003F
:105E4000140804000100000000000000A689000002
:105E5000A701A701E4DC0200140801000100000012
:105E600000000000A6890000A801A80100DD0200D2
:105E7000140800000100000000000000A6890000D6
:105E8000AA01AA011CDD020014090200010101009F
:105E900000000000A6890000AB01AB0138DD020064
:105EA000140905000101010000000000A68900009E
:105EB000AC01AC0154DD0200140904000100000033
:105EC00000000000A6890000AD01AD0170DD0200F8
:105ED000140901000100000000000000A689000074
:105EE000AE01AE018CDD02001409000001000000CB
:105EF00000000000A6890000BC01BC01A8DD020072
:105F0000160002000101010000000000A689000047
:105F1000BD01BD01C4DD0200160004000101010045
:105F200000000000A6890000BE01BE01E0DD020005
:105F3000160001000100000000000000A68900001A
:105F4000BF01BF01FCDD02001600000001000000DF
:105F500000000000A6890000C001C00118DE020098
:105F6000160003000100000000000000A6890000E8
:105F7000C101C10134DE020016010200010101006D
:105F800000000000A6890000C201C20150DE02002C
:105F9000160104000101010000000000A6890000B4
:105FA000C301C3016CDE0200160101000100000004
:105FB00000000000A6890000C401C40188DE0200C0
:105FC000160100000100000000000000A68900008A
:105FD000C501C501A4DE0200160103000100000096
:105FE00000000000A6890000C601C601C0DE020054
:105FF000320000000100000000000000A68900003F
:10600000C701C701DCDE020034000000010000000F
:1060100000000000C4F90200C801C801F8DE020057
:10602000340003000100000000000000A689000009
:10603000C901C90114DF02003400010001000000A1
:1060400000000000A6890000CA01CA0130DF02007A
:10605000340002000001010000000000A6890000D9
:10606000CB01CB014CDF0200340100000100000035
:106070000000000050F70200CC01CC0168DF0200F4
:1060800034010300010000000000000050F702008E
:10609000CD01CD0184DF02003401010001000000C8
:1060A0000000000050F70200CE01CE01A0DF020088
:1060B000340102000001010000000000A689000078
:1060C000E101E101BCDF020018000300FFFFFFFF58
:1060D000FFFF0000A6890000E201E201D8DF020014
:1060E00018000600FFFFFFFFFFFF0000A689000069
:1060F000E301E301F4DF020018000200FFFFFFFFED
:10610000FFFF0000A6890000E401E40110E00200A6
:1061100018000700FFFFFFFFFFFF0000A689000037
:10612000E501E5012CE0020018000800FFFFFFFF79
:10613000FFFF0000A6890000E601E60148E002003A
:1061400018000900FFFFFFFFFFFF0000A689000005
:10615000E701E70164E0020018000A00FFFFFFFF0B
:10616000FFFF0000A6890000E801E80180E00200CE
:1061700018000400FFFFFFFFFFFF0000A6890000DA
:10618000E901E9019CE0020018000500FFFFFFFFA4
:10619000FFFF0000A6890000EA01EA01B8E0020062
:1061A00018000100FFFFFFFFFFFF0000A6890000AD
:1061B000EB01EB01D4E0020018000000FFFFFFFF3D
:1061C000FFFF0000A6890000FA01FA01F0E00200DA
:1061D000430000000100000000000000A68900004C
:1061E000FB01FB010CE10200430001000100000083
:1061F00000000000A6890000FC01FC0128E102006B
:10620000430002000100000000000000A689000019
:10621000FD01FD0144E10200440000000100000016
:1062200000000000A6890000FE01FE0160E10200FE
:10623000450001000100000000000000A6890000E8
:10624000FF01FF017CE102004500000001000000A9
:1062500000000000A6890000010049B2002909D40D
:10626000012210F01F018A40DFF8A81C40B240094B
:1062700041F820207047010049B200290DD40122C5
:1062800010F01F018A40DFF8901C40B2400941F82D
:106290002020BFF34F8FBFF36F8F7047010049B2CB
:1062A000002909D4012210F01F018A40DFF86C1C7C
:1062B00040B2400941F820207047020052B2002A43
:1062C00005D40901DFF8582C40B2115408E0090147
:1062D000DFF8502C40B210F00F00104400F8041CFE
:1062E0007047DFF8C82C126840B202EBC0000860AB
:1062F000704720218164002181660021C0F8B0111F
:106300000021C0F8CC110021C0F8E011704789B21B
:1063100001607047C9B200290AD0416C51F4407144
:106320004164D0F8B01151F00201C0F8B01105E09D
:10633000D0F8B01131F00201C0F8B0117047006E12
:106340007047806BC0F340107047806BC00990F0BD
:10635000010010F001007047C94381637047C943D1
:10636000C1637047C9B2002906D0816E51F00101A6
:1063700081660621016707E0816E49084900816650
:10638000016F51F0010101677047C06B800B10F085
:1063900001007047C06BC00910F0010090F00100CF
:1063A000C0B27047002181630021C1637047816CD6
:1063B00051F4807181647047C06BC0F34030704706
:1063C0008AB28260090CC160704789B2C26C61F305
:1063D0000902C2647047026961F3000202617047FA
:1063E000026961F308220261704741617047826966
:1063F0000A60026A4A60826A8A60006BC8607047FD
:10640000806908607047806A08607047C9B20129D6
:1064100004D004290BD0082912D01AE0016D51F4E0
:1064200000410165016D31F40051016519E0016D14
:1064300031F400410165016D31F40051016510E056
:10644000016D31F400410165016D51F400510165A8
:1064500007E0016D31F400410165016D31F4005137
:1064600001657047C9B2826C61F3070282647047AC
:10647000806CC0B27047D0F8C01149084900C0F81C
:10648000C0117047D0F8C01151F00101C0F8C0111F
:106490007047DFF8D42BC9B252F82110016470475D
:1064A000016C4908490051F00401016470474164DE
:1064B0007047006C7047C9B2026D61F30302026558
:1064C0007047C9B2026D61F3071202657047603010
:1064D000704701004FF4E570C9B2012900D1001DD9
:1064E00000B270472DE9F84386B00E000500002089
:1064F0003100280000F0D9FC0400002C3FD1DFF867
:106500006C0B006800903078009960F31F41009197
:10651000009830F47F40009034208DF8000002A8ED
:10652000102101F07DFD02A96846DFF8442BD268F6
:1065300090470400002C2DD17FF020007FF0200038
:106540007FF02000DFF8A00B0068019001AA002175
:106550006846DFF81C3B1B6998479DF904703800BA
:1065600040B210F1210F20D1DFF8800B40F2491228
:10657000DFF87C1B0B2001F009FE0B20B0E0DFF8F8
:106580006C0B4FF49A72DFF8681B200001F0FEFDDF
:106590002000A5E0DFF8540B4FF49F72DFF8501B8A
:1065A000200001F0F3FD20009AE0684601F02FFF83
:1065B00000286AD1327D390049B2280000F05AFD26
:1065C00001AA01216846DFF8A83A1B6998479DF99E
:1065D0000480B27D414649B2280000F04BFD01AA7B
:1065E00003216846DFF8883A1B6998479DF90490B3
:1065F000727D494649B2280000F03CFD01AA022103
:106600006846DFF86C3A1B699847F27D9DF90410E3
:10661000280000F02FFD28004FF4167101F000FD56
:106620009DF8040085F844000298E863F068A863C8
:10663000B0686863281D3100032201F03BFFB07889
:1066400028757068A8604FF400706862306900288F
:1066500002D0306900686862684601F091FF3169D4
:10666000280000F057FE0400002C03D1280000F0A1
:10667000B8FE0400002C13D1280001F073F80120AB
:106680006873DFF8380B28601CE0DFF8600A4FF40D
:10669000A672DFF85C1A0A2001F078FD0A201FE0DC
:1066A000380040B200F00AFD404640B200F006FD5E
:1066B000484640B200F002FD684601F05BFF6846C4
:1066C00001F0BCFE002C01D1200009E0DFF81C0A1B
:1066D00040F28F12DFF8181A200001F057FD200059
:1066E00007B0BDE8F083FEB50400002C58D0206848
:1066F000DFF8C81A884255D100202060DFF8C00AB0
:10670000006800902079009960F31F410091009883
:1067100030F47F40009034208DF80000DFF8A40AA8
:106720000068019001AA00216846DFF844391B691E
:1067300098479DF9045001AA03216846DFF83039D3
:106740001B6998479DF9046001AA01216846DFF89A
:1067500020391B6998479DF90470280040B200F069
:10676000ADFC380040B200F0A9FC300040B200F0AF
:10677000A5FCA0680068A1688968C96988470521E7
:10678000E06BFFF7E9FD48F27F31E06BFFF7E7FDD3
:10679000684601F0EFFE684601F050FE00200BE075
:1067A000012009E0DFF844094FF4D272DFF8401904
:1067B000072001F0EBFC0720FEBD2DE9FC4106009F
:1067C0000D0090461F000020002D19D00021300040
:1067D00000F0EEFB0400002C14D12B00726A39008B
:1067E000300001F024FA002817D10020B07B0028E7
:1067F00002D1706A00FB08F8022F1BD312231AE0A3
:1068000001202FE0DFF8E40840F2E912DFF8E01899
:10681000200001F0BBFC200024E0DFF8D00840F2AB
:10682000ED12DFF8CC1849F6434001F0AFFC49F611
:10683000434017E01123CDF800809BB2726A92B2F8
:106840003900300000F06CFE00280BD0DFF89C0807
:1068500040F20322DFF8981849F6434001F096FC15
:1068600049F64340BDE8F6812DE9FC4106000D00E4
:1068700090461F000020002D19D00121300000F0AB
:1068800097FB0400002C14D12B00726A39003000F1
:1068900001F05CFA002817D10020B07B002802D15B
:1068A000706A00FB08F8022F19D3192318E00120A1
:1068B0002BE0DFF8380840F22722DFF834182000F8
:1068C00001F064FC200020E0DFF8200840F22B22D9
:1068D000DFF81C18182001F059FC182015E01823C7
:1068E000CDF800809BB2726A92B23900300000F09D
:1068F00017FE002809D0DFF8F40740F24222DFF843
:10690000F017182001F042FC1820BDE8F681F8B518
:1069100006000F00150000202A003900C9B230001F
:1069200001F0CDFA0400002C0FD1FFB2012F17D0D7
:10693000022F18D0052F19D0062F1AD0072F1BD0E1
:106940000324002C1BD1200023E0DFF8A00740F235
:106950005922DFF89C17200001F018FC200018E0F5
:10696000B06A2860EDE7706A2860EAE7307C28703A
:10697000E7E728687062E4E700202870E1E7DFF8C5
:106980006C074FF41F72DFF86817200001F0FEFB60
:106990002000F2BD2DE9FC4106000C0017009846CE
:1069A0000020002C15D00021300000F001FB050074
:1069B000002D10D1002020700020019000200090B8
:1069C00043463A002100300000F00AFE00280DD1B5
:1069D00018E0012016E0DFF8140740F29F22DFF8EC
:1069E0001017280001F0D2FB28000BE0DFF8FC06AE
:1069F00040F2A522DFF8F81649F6434001F0C6FB45
:106A000049F64340BDE8F6812DE9FC4106000D0042
:106A1000170098460020002D14D00021300000F00F
:106A2000C7FA0400002C0FD1089801210191C0B2CF
:106A3000009043463A002900300000F0D1FD0028C4
:106A40000DD116E0012014E0DFF8A00640F2C922C3
:106A5000DFF89C16200001F099FB200009E0DFF828
:106A60008C0640F2CE22DFF88816182001F08EFB4B
:106A70001820BDE8F6812DE9FE4F8B4615001E005B
:106A800001900020BBF1000F05D00C9F3868002852
:106A900003D101207BE0012079E00021019800F082
:106AA00087FA0400002C40D10D9C41F635480020A7
:106AB00000202000C0B2012844D13868B0F5007F22
:106AC0003ED2D7F800900198D0F824A0B9F1020F77
:106AD00001D358F4C0485B46524692B249460198E9
:106AE00001F0A5F8002839D10E98DFF8481B096895
:106AF0003A68D205D20D62F3080165F31E71E4B263
:106B000064F3DB61C0B260F39A6166F3592121F04E
:106B10000041009143469BB2524692B249460198C9
:106B200000F0FEFC002826D131E0DFF8C00540F27D
:106B3000F622DFF8BC15200001F028FB200026E03B
:106B4000012024E0386840F20121884204D25FF03D
:106B50000109D7F800A0BEE7012018E0DFF88C0596
:106B600040F21232DFF8881549F6434001F00EFB7F
:106B700049F643400BE0DFF8740540F21F32DFF8BE
:106B8000701549F6434001F001FB49F64340BDE86A
:106B9000FE8F2DE9FE4F8B4616001F00019000204E
:106BA000BBF1000F04D00C9C002C03D1012070E03D
:106BB00001206EE00021019800F0FAF90500002D97
:106BC0003BD10D9D40F63548002000202800C0B282
:106BD00001283FD1B4F5007F3AD2A1460198D0F800
:106BE00024A0B9F1020F01D358F4C0485B465246C5
:106BF00092B24946019801F0A9F8002834D10E98C4
:106C0000DFF85C1B096864F3080166F31E71EDB2DE
:106C100065F3DB61C0B260F39A6167F3592151F00B
:106C20000041009143469BB2524692B249460198B8
:106C300000F076FC002822D12BE0DFF8B0044FF4FE
:106C40005272DFF8AC14280001F0A0FA280020E00E
:106C500001201EE040F20120844203D25FF00109CE
:106C6000A246C3E7012014E0DFF880044FF4597214
:106C7000DFF87C14182001F089FA182009E0DFF809
:106C80006C0440F27132DFF86814182001F07EFACB
:106C90001820BDE8FE8F38B504000D00002C10D080
:106CA000E06BFFF772FB00280DD1E06BFFF772FB82
:106CB000002815D12900C9B2E06BFFF753FB002073
:106CC0001AE0012018E0DFF8240440F28932DFF8EE
:106CD000201449F6464001F059FA49F646400BE0C7
:106CE000DFF8080440F28A32DFF8041449F646401F
:106CF00001F04CFA49F6464032BD0100002000295F
:106D000004D0DFF8E82312680A6000E00120704731
:106D100038B505000C00002D1BD0002C1BD02868B6
:106D2000DFF89814884218D1280000F043FC2000B6
:106D300015F10C01242201F0CDFBE86BFFF725FBD8
:106D4000002804D1E86BFFF725FB002810D00120B4
:106D50000FE001200FE001200DE0DFF8900340F28A
:106D6000B932DFF88C13072001F010FA072002E097
:106D700000206071002032BD2DE9F84306008846EE
:106D8000150000202A004146300000F0CDF8040034
:106D9000002C08D1B07B012810D1424615EB080821
:106DA000B8F1010814E0DFF844034FF47972DFF81A
:106DB0004013200001F0EAF9200074E0726A02FB3F
:106DC00008F215EB0808706A00FB08F8B8F1010832
:106DD000307B002804D123215FF02409012703E040
:106DE00020215FF021090027002089B2300000F047
:106DF00081F9C0B2002813D04246494689B230001A
:106E000000F078F9C0B2002815D1DFF8E00240F2B6
:106E10000642DFF8DC12192001F0B8F9192042E02F
:106E2000DFF8C80240F20242DFF8C412192001F074
:106E3000ADF9192037E03A002621300000F05AF968
:106E4000C0B200282ED1DFF8002BDFF8000B0021A4
:106E5000E2FB050104000D00306C00900BE000988F
:106E6000C0071CD40121012001F01AFC641E75F139
:106E70000005306C0090002000218D4201D1844239
:106E80000FD00098C0F3C0500028E8D0974840F2D7
:106E900016429749192001F079F9192003E00020E2
:106EA00001E019242000BDE8F2831CB50C00002885
:106EB00022D0002C22D06068002821D0A078082899
:106EC0000DD1DFF88C0AD0E90023CDE90023684614
:106ED00001F02CFC0098C0F34000002812D020697B
:106EE000002807D02069006800280DD040F2012159
:106EF00088420BD2002016BD0120FCE70120FAE7F2
:106F00000120F8E70120F6E70120F4E70120F2E78D
:106F10000000000000E100E080E100E080E200E02D
:106F200000E400E018ED00E0F8B507000E001400E2
:106F30000121380000F03CF80500002D0AD1002C9A
:106F400011D16A4840F26C426949192001F01EF9DA
:106F5000192029E0654840F269426549280001F09E
:106F600015F9280020E0F86AB4FBF0F100FB1144A9
:106F7000002C08D1F86AB6FBF0F100FB1166002E78
:106F80000AD1002010E0594840F26D4258491920BA
:106F900001F0FCF8192007E054484FF48E62544980
:106FA000192001F0F3F81920F2BD00008CFF020057
:106FB00038B505000C00002D17D028687F4988429D
:106FC00015D195F8300000281AD1E86BFFF7F4F9D5
:106FD000002820D1454840F28C42454949F64640B8
:106FE00001F0D4F849F646401FE001201DE03F487B
:106FF0004FF491623E49072001F0C8F8072014E0E1
:107000003A4840F28B423A4949F6464001F0BEF810
:1070100049F6464009E0280000F0CCFA687B0028D9
:1070200004D0E4B2002C0CD1002032BD2F484FF424
:1070300092622F4949F6444001F0A8F849F64440CD
:10704000F3E795F831000028EED0287C0028EBD03B
:10705000264840F29542264949F6454001F096F807
:1070600049F64540E1E700009418FE1F14000300B4
:1070700084E602007CB504000D001600280040B232
:1070800010F1210F19D06946280040B2FFF729F905
:10709000F6B23100280040B2FFF70FF900980068FF
:1070A0000460280040B201F05BFB280040B2FFF70B
:1070B000F5F8280040B2FFF7CFF873BD1CB5040007
:1070C000200040B210F1210F0CD0200040B2FFF799
:1070D000D2F86946200040B2FFF703F9002000997A
:1070E0000968086013BD00000800030010000300D9
:1070F00054FF02007CB505000C001600E86BFFF79A
:1071000051F900202864E86BFFF7CAF94FF4F94100
:10711000E86BFFF7CCF9E86BFFF749F93100E86B52
:10712000FFF74EF9210089B2E86BFFF7F0F842F261
:107130001074286C009009E00098C0070FD401215A
:10714000012001F0ADFA641E286C0090002C08D0DC
:107150000098C0F3C0500028EED0002002E00120CB
:1071600000E0002076BD7CB504000D0000200090FA
:10717000FF2069460020DFF8D02B92699047002855
:1071800001D0002019E0012600E0761C3000C0B2DA
:107190000A2811D20098F0408542F6D30121B1406F
:1071A0008908C9B2200000F00FF8002804D0009828
:1071B000F0402062012000E0002076BD49484453A1
:1071C000180003000C00030038B504000D00200077
:1071D00000F00BF8002801D1002005E02900C9B219
:1071E000E06BFFF73FF9012032BD38B50500E86BD1
:1071F000FFF73EF98000010089B2002900D102208A
:1072000080B2C40000E0641E002C06D0E86BFFF7DB
:10721000D3F80028F7D0012000E0002032BD3EB5B1
:1072200005000C00E86BFFF726F9E86BFFF72AF979
:10723000E86BFFF75EF80021E86BFFF73CF90E21E1
:10724000E86BFFF73EF90021E86BFFF722F9DFF862
:107250002C1C2800FFF787FF002802D149F6404088
:1072600057E0E86BFFF7A3F80121E86BFFF7CEF8D2
:107270004FF47A71252001F013FA002085F83100CF
:10728000002C45D0207900283AD0DFF8F40BD0E963
:107290000023CDE90023684601F048FA0098C007B2
:1072A00018D56879012820D12179E86BFFF7F1F82A
:1072B000E86BFFF746F8002822D1DFF8C80B4FF43F
:1072C000BD62DFF8801C49F6414000F05FFF49F6DF
:1072D00041401EE0DFF8AC0B40F2E252DFF8641CE4
:1072E000032000F053FF032013E0DFF8980B40F277
:1072F000E352DFF8501C032000F048FF032008E0B1
:107300006079002801D0012000E0002085F83100DC
:1073100000203EBD3EB505002800FFF780FF0400B9
:10732000002C2DD108208DF80800012001900120AB
:1073300000900623002202A9280000F051F9002243
:1073400000212800FFF7D6FE280000F075F900287C
:1073500021D1686AB0F5007F27D14FF4D57208219A
:107360002800FFF7C7FE280000F09EF9002827D16B
:10737000280000F0CAF900282ED00020287321E050
:10738000DFF8000B40F20262DFF8B81B200000F0CB
:10739000FDFE200024E001202873280000F09DFB62
:1073A00000281CD149F640401AE0DFF8D80A40F224
:1073B0001562DFF8901B032000F0E8FE03200FE0C9
:1073C00001202873002202212800FFF793FE0028E5
:1073D000E3D149F6404003E049F6404000E0002098
:1073E0003EBD38B58CB00400DFF85C0B0068E07B74
:1073F000012835D1A269120407212000FFF77AFE87
:10740000002802D149F6404025E0200000F026FA8D
:10741000002802D149F640401DE0A0798DF808000F
:107420009DF80800C0F341008DF80800012001908C
:10743000012000900723002202A9200000F0D0F8CC
:1074400000280AD1A179E06BFEF7E0FF0121E06B93
:10745000FEF788FF00200DB030BD49F64040FAE746
:10746000DFF8E81A200000F075FA002802D149F68A
:107470004040F0E7A269120407212000FFF73AFE1E
:10748000002802D149F64040E5E7E06B8069C0F38F
:107490004060002824D003A801F09BF905002A00D1
:1074A000D2B210212000FFF725FE012815D1EDB240
:1074B000009503AB00222A21200000F049FD00289E
:1074C00002D049F64040C6E70120DFF8E41A4870D0
:1074D00048F2EC5001F05CFA06E049F64040BAE7A9
:1074E0000120DFF8CC1A0870DFF8601A200000F0E5
:1074F0008FF9002802D149F64040ACE7626A1021BA
:107500002000FFF7F7FD002802D149F64040A2E72E
:10751000200000F001FB00289CD149F640409AE78A
:107520002DE9F84305000E00170098466424012059
:1075300085F83000022E08D30121E86BFEF750FFDA
:107540003100E86BFEF751FF03E00021E86BFEF726
:1075500047FFDDF82090390089B2E86BFEF735FF70
:107560004A46414689B22800FFF7C4FD002815D0DD
:10757000DFF8480A00680090022E04D36946E86BE1
:10758000FEF741FF03E06946E86BFEF739FF00981C
:10759000DFF82C1A0840002800D10024002C06D067
:1075A0000121E86BFEF717FF280000F06DFC2000BA
:1075B000BDE8F28310B50400E06BFEF77AFFC0432C
:1075C00010F4467F0BD0607B002808D0E06BFEF7FC
:1075D000B8FE002801D0012000E00020607310BD3B
:1075E000F8B504000D000699079F0026DFF8D409BE
:1075F000006862F31E7067F3DF70C9B261F3DB608D
:1076000063F35920297861F3070002003421200038
:10761000FFF770FD002801D1642609E0DFF8A80912
:10762000006800906946E06BFEF7EAFE009828705B
:107630003000F2BD1C0003007CB50400DFF88C09AB
:1076400000680090DFF888590020E07300220521CF
:107650002000FFF74FFD002824D06946E06BFEF7BD
:10766000CFFE0098C0F3027000281BD0002608E06F
:107670006946E06BFEF7C4FE0098C00F00280DD1EC
:10768000761C40F6067086420CD22A0005212000A6
:10769000FFF730FD0028EBD1002004E00120E0736B
:1076A000012000E0002076BD38B50400DFF8240991
:1076B00000680090002510E0DFF81C2969212000F7
:1076C000FFF718FD00281CD06946E06BFEF798FE16
:1076D0000098C00F00280DD16D1C40F60670854241
:1076E00011D2002237212000FFF704FD0028E3D14A
:1076F000002009E00098800F10F00100A073012025
:1077000002E0002000E0002032BD7CB50400DFF87C
:10771000CC08006800905FF08045002608E06946CC
:10772000E06BFEF76DFE0098C00F00280FD1761CAD
:1077300040F60670864211D2DFF894282A430121D0
:107740002000FFF7D7FC0028E9D1002007E00098CF
:10775000800F10F00100A073012000E0002076BD32
:107760002000030010B504006079012808D1E06B07
:10777000FEF7EBFD002801D0012000E0002020747E
:1077800010BD38B50500DFF8584804E0012101209C
:1077900000F086FF641EE86BFEF70EFE002803D1A2
:1077A000002CF3D1002011E0DFF8344804E001217F
:1077B000012000F075FF641EE86BFEF7EBFD00286A
:1077C00003D0002CF3D1002000E0012032BD10B521
:1077D0000400200000F01DF9DFF80808E061E07CFB
:1077E000800713D5DFF8002840F206512000FFF78C
:1077F00081FC002801D1002009E0DFF8F007E061FA
:10780000012060752000FFF7BCFF00E0012010BDE3
:1078100010B50400DFF8D807E061207B002806D10E
:107820002000FFF7D4FF00280ED1002015E0D1F88A
:107830000700000D400507D5200000F054F800288F
:1078400002D0DFF8B007E061E1692000FFF78BFCB0
:10785000002801D1002000E0012010BD1FB5040068
:1078600000208DF8080002208DF80800012001900A
:10787000012000901323002202A92000FFF7B0FE90
:10788000002801D0002017E00320DFF86417E16131
:107890000100C9B29DF80820C0B21040814202D157
:1078A000DFF85007E061E1692000FFF75CFC002889
:1078B00001D1002000E0012004B010BD38B5050062
:1078C00042F2107404E00121012000F0E9FE641E80
:1078D000286CC0F38000002803D1002CF3D10020D5
:1078E00000E0012032BDF8B5040000254023DFF898
:1078F00008270621200000F0BAF8002801D1002056
:1079000020E06E46002712E0E06BFEF718FD0090C5
:10791000042F05D1307810F00F000F2800D100257A
:10792000032F03D17078800700D501257F1C102F0D
:10793000EAD32000FFF7C2FF002801D1002001E0B8
:107940002800C0B2F2BD000090D00300C0C62D00D8
:1079500044FF020038B504000D00A2691204092199
:107960002000FFF7C7FB002801D1002050E02900CC
:10797000E06BFEF73CFDD5F80B00800FA074A07CF7
:10798000002802D0207B00282AD1D5F8020001214E
:10799000C0F3C250801C11FA00F0D5F80510C1F3F5
:1079A0008B31491C00FB01F0A062D5F806000121D3
:1079B000000E10F00F0011FA00F0A16A400A00FB5F
:1079C00001F0A062207B002815D1D5F80500C0F396
:1079D0008B3040F6FF7188420DD10020A0620AE092
:1079E000A07C012807D16868C0F31521491C4FF419
:1079F00080604143A162A07C002806D1D5F8010037
:107A0000C0F3C650401CE06201E00120E0620120AA
:107A100032BD7CB504004FF40073A269120441F634
:107A20000841200000F023F8002801D100201DE0CB
:107A3000002000906D46002613E0E06BFEF77FFC0F
:107A40000090302E01D12878A074312E01D12878F1
:107A5000E074352E04D1A06A002801D10098A062FC
:107A6000761C802EE9D32000FFF728FF76BDF8B5FD
:107A700005000C0016001F000021E86BFEF7B0FCAB
:107A8000390089B2E86BFEF7A0FC3200210089B210
:107A90002800FFF72FFB002801D100201CE0DFF8B1
:107AA0005C45286C00900BE00098C0F30060002853
:107AB0000FD10121012000F0F3FD641E286C00901D
:107AC000002C08D00098C0F3C0500028ECD0002053
:107AD00002E0012000E00020F2BD1CB50400DFF848
:107AE0002005006800902079801CA061A269120422
:107AF00003212000FFF7FEFA002801D100200AE050
:107B00006946E06BFEF77CFC207B012802D10098DF
:107B1000000CA061012016BD70B50400257D207BFE
:107B2000002816D12800C0B2C0F38100DFF8D424A9
:107B300052EA002206212000FFF7DCFA002801D1DA
:107B4000002023E02000FFF71CFE002818D10020B1
:107B50001CE02800C0B2C0F34106A269120437211C
:107B60002000FFF7C7FA002801D100200EE0320004
:107B700046212000FFF7BEFA002801D1002005E0D1
:107B80002900C9B2E06BFEF741FC012070BD000086
:107B9000F0B4030014000D00AD08002604E053F813
:107BA000267044F82670761CAE42F8D3AB0002E093
:107BB000C45CD4545B1C8B42FAD3F0BC70471CB538
:107BC0000468E06C216D88421AD094F845000128C1
:107BD00005D1A26C616D14F15800FFF7D9FF94F83C
:107BE0004500022805D114F15802616DA06CFFF721
:107BF000CFFF206D401C2065A06C616D0844A0641F
:107C0000E06C216D884211D194F8450001280DD116
:107C1000200000F039F9606B002807D0A06B0190BC
:107C200010208DF800006846616B884713BDF0B5E1
:107C300085B004000D0016001F00A06840680068B1
:107C40000090A068406800690490A0684068C0790E
:107C50008DF80700DFF8B0030290039401208DF83F
:107C6000060094F9440000F07BFD0121E06BFEF773
:107C700051FBE06BFEF72BFC009948600098876091
:107C8000009885810098C07810F0F3000099C870C2
:107C90000098807810F0F30050F008000099887088
:107CA0000098C07810F0CF0050F020000099C87004
:107CB0000098C07810F03F0050F080000099C87024
:107CC0000098807810F0DF0000998870F01C800820
:107CD0000099C8810098807850F010000099887051
:107CE0000098807810F03F00009988702079FEF7A6
:107CF000F0FBADF8040017F00300002802D116F0E5
:107D0000030F17D00098807850F0200000998870F9
:107D10000098807810F0EF000099887014F15800F6
:107D20000099886000202065E564A764012084F83C
:107D3000450066656946A0680068A2689268126896
:107D4000904705B0F0BD00001CF000002DE9F8419F
:107D500085B004000D0016001F00DFF8AC02029091
:107D60000394A068406800680090A06840680069BB
:107D70000490A0684068C0798DF8070001208DF854
:107D80000600DDF80080C8F80470A8F80C5098F8D8
:107D9000030010F0F30050F0080088F8030098F892
:107DA000020010F0F30088F8020098F8030010F0C9
:107DB0003F0050F0800088F8030098F8020010F0AF
:107DC000DF0088F8020098F8020010F0EF0088F851
:107DD000020098F8020010F03F0088F80200E06B03
:107DE000FEF775FBC8F8080098F8030010F0CF0004
:107DF00050F0200088F80300F01C8008A8F80E005E
:107E000094F9440000F0ACFC0121E06BFEF782FA2B
:107E100017F00300002802D116F0030F1FD098F8C6
:107E2000020050F0200088F8020098F8020050F09C
:107E3000100088F8020014F1580231003800FFF7F2
:107E4000A7FE14F15800C8F8040001202065E5647D
:107E500007EB0600A064022084F8450066652079DF
:107E6000FEF737FBADF804006946A0680068A26819
:107E700092681268904706B0BDE8F081801A06004B
:107E80004CFF02001000030010B504000020206524
:107E90000020E0640020A064002084F84500002059
:107EA0006065A0680068A1688968C9698847002181
:107EB000E06BFEF72FFA002084F8300010BD10B5FB
:107EC000002814D0002A14D00368504CA34212D1C9
:107ED000C9B2062909D11168C07B002826D0002923
:107EE00012D040F20120814217D2002010BD0120A3
:107EF000FCE70120FAE7464840F6AE221149072088
:107F000000F044F90720F1E7414840F6B8220D4956
:107F1000172000F03BF91720E8E73D4840F6B9226A
:107F20000849172000F032F91720DFE7B1F5007F8C
:107F3000DBD0374840F6BE220249172000F026F970
:107F40001720D3E754FF020024000300486B0220EF
:107F5000F8B504000D0016000020002B13D0069F7A
:107F60003A0001212000FFF7F1FE00280DD1009614
:107F70002B009BB23A0092B201212000FFF7D0FA09
:107F800000280BD112E0012010E0214840F6893290
:107F90002049182000F0FAF8182007E01C4840F6A5
:107FA0008D321C49182000F0F1F81820F2BD0000B5
:107FB00006680320184870471848704728000300D7
:107FC0000080F9FD2C0003003000030034000300A2
:107FD0000080FF00380003000080FF403C000300E9
:107FE000404B4C0080BA8C010002B90300751903A4
:107FF00040787D0180F0FA02F1FFFF8020A10700A8
:10800000400003000000B701BF7B00004948445313
:108010001000030054FF020006680320486B022092
:10802000002200F0C1BC03681AB95A1E026008465B
:108030007047197811B94FF0FF3070475A1C026031
:108040001878704710B534230122DFF84413DFF8A5
:10805000440300F0C3FC04000020DFF83C138860F8
:108060000020DFF83413C860DFF82C0300F029FD8E
:108070000120DFF82413C862200010BD2DE9FC4167
:1080800004000D0017001E00DFF80C03C06A012871
:108090007AD10A21DFF8FC0200F090FD00286BD1B4
:1080A000DFF8F402D0F80880684600F00AFD69465F
:1080B000DFF8E40200F015FDDFF8E022E82303FB1F
:1080C00008F31A44C2E9000195222100DFF8CC022E
:1080D000E82303FB08F31844083000F0A3FD3F2217
:1080E0002900DFF8B802E82303FB08F318449F30A7
:1080F00000F098FDDFF8A402E82101FB08F1084434
:10810000C0F8E070DFF89402E82101FB08F10844B0
:10811000C0F8E46018F10108B8F1200F01DB5FF04E
:1081200000089D48C0F808809B48C06880450DD174
:10813000401C202800DB00209749C8600120964998
:10814000486295488069401C93498861924800695B
:1081500080450DD1401C202800DB00208E4908619D
:1081600001208D4988628C48C069401C8A49C861D9
:10817000884800F08FFD07E00120874908628648A3
:108180004069401C84494861BDE8F38130B589B03D
:1081900003000C0015000B2B05D1814A20216846F5
:1081A00000F0A0FD04E07F4A2021684600F09AFD1F
:1081B00000232A0021006846FFF760FF09B030BDA8
:1081C00070B5A6B004000D0016001A002AAB962167
:1081D000684600F0A9FD33002A0021006846FFF739
:1081E0004DFF26B070BDF8B584B000F0BBFD806ACD
:1081F00000F0B8FDD0F88C506B48696988476B482F
:10820000696988476A486969884763484369624879
:10821000C2696148816967486C69A04766486969B5
:10822000884734E000205C49886000205A49C860D3
:108230002DE05A48E82101FB04F10844D0F8E000A1
:1082400002905648E82101FB04F108449F30019058
:108250005248E82101FB04F10844083000904F48DF
:10826000E82101FB04F10844D0E90023534869697F
:108270008847641C202C00D300247F1CB742D8D32D
:1082800042A0696988474E4903A82A69904700219E
:10829000032000F0D9FF404880683F49C968884200
:1082A00001D3441A02E0D1F120040419162C00D3A2
:1082B0001624884202D30600361B07E0A04203D2F0
:1082C000D4F12006861901E00600361B00272AE0BB
:1082D0003C486969884725E0A742F9D22F48E82140
:1082E00001FB06F10844D0F8E00002902B48E82199
:1082F00001FB06F108449F3001902848E82101FB6A
:1083000006F10844083000902448E82101FB06F1FA
:108310000844D0E900232C4869698847761C202E40
:1083200000D300267F1C162FD6D3C82103A82A69A4
:1083300090470028ABD19DF80C001B2822D0432881
:108340003FF470AF442809D052281BD063283FF473
:1083500069AF642802D0722814D098E7124869697E
:1083600088470D4880680C49CC68A04202D30600BB
:10837000361B02E0D4F12006861904A069698847FB
:1083800000277BE705B0F0BD000000000A0D0000EB
:1083900064F80200243FFE1FF43EFE1F10880320F5
:1083A00094E50200E8F50200A4E70200E4AF020051
:1083B00014B0020064AC020044B00200C4E5020044
:1083C000400D03006CF80200ACE5020080B500210E
:1083D00000F001F802BD10B4030008200022D3E829
:1083E0004F1FC9B2002908D10124C3E8414F002919
:1083F00001D1002003E0012201E0BFF32F8FD2B2B0
:10840000002AEBD110BC704700210170704780B585
:10841000002100E0491C214A126891420CD20268F6
:108420001F4B1B6853F821309A42F3D11D48006856
:108430000844FFF7CBFF00E0032002BD80B5002118
:1084400000E0491C154A126891420CD20268144B94
:108450001B6853F821309A42F3D11248006808444F
:10846000FFF7D2FFFFE701BD10B50F480D490860C7
:108470000E480B4908600E4880080849086000242F
:1084800006E00748006800EB8400FFF7D7FF641C94
:10849000024800688442F4D310BD00003C1801205B
:1084A000381801203418012010C90320DC8802008C
:1084B000B001000062B38B0708D0521E11F8013BD7
:1084C00000F8013B00F024808B07F6D1830740F0D1
:1084D000208000BF103A07D330B4B1E83810103A0A
:1084E000A0E83810F9D230BC530724BFB1E8081017
:1084F000A0E8081044BF51F8043B40F8043BD20701
:1085000024BF31F8022B20F8022B44BF0B780370F4
:108510007047121F17D35B0009D151F8043B20F8B4
:10852000023B1B0C121F20F8023BF6D20BE051F865
:10853000043B00F8013B1B0A20F8023B1B0C121FF6
:1085400000F8013BF3D238BF121D521E24BF11F8B0
:10855000013B00F8013BF8D870478268521C8260EA
:10856000426832B10268531C036011704168491EB1
:108570004160704780B50022012100F007F802BD7C
:1085800080B50022002100F001F802BD70B50D0099
:108590001400414909780178462908DA3C490278F3
:1085A0008E5C3100C9B2FF2903D1032031E00120E4
:1085B0002FE000F02FF8010036483200D2B29209C5
:1085C000D2B250F82220EDB2002D15D0C6F34010E3
:1085D000C0B2002802D0E4B2002C0BD00020EFF390
:1085E0001080012383F3108813681943116080F30E
:1085F00010880DE003200CE0C9430020EFF3108049
:10860000012383F3108813681940116080F31088E8
:10861000002070BD10B40200204800781C4811787A
:10862000435C012113F01F041068000C241A106829
:10863000000A201A11FA00F0C3F34011C9B2002950
:1086400023D0012113F01F0011FA00F011782B291B
:1086500002D033290CD018E01168090C082906D380
:10866000012013F01F035B1C10FA03F318000CE049
:108670001168C1F30721012906D1012013F01F035E
:108680005B1C10FA03F31800FFE710BC70470000F2
:108690003CAA0200D0EA0200DB8900008E9D0000A7
:1086A000D0B5040000204C4301F080F81349B1FB21
:1086B000F0F24FF47A70A0FB040100260127B942C2
:1086C00006D801D3B04203D2B0FBF2F0800810E02C
:1086D0009000B4FBF0F04FF47A71A1FB000100228E
:1086E0000123994203D801D3904200D201E05FF008
:1086F000FF30002801D000F003F8D0BD00CA9A3B3B
:1087000001380028FCD1704770470268531C036091
:1087100011707047017851F001010170017851F03A
:10872000020101707047074901607047016851F00C
:1087300001010160016851F00201016002494160DC
:108740007047000058B1020080F0FA02017811F081
:10875000FE0101707047017851F00101017070470E
:10876000010049B200290AD41049020052B251F85E
:10877000221031F480310D4A40B242F82010704787
:108780000A480B49C9080B4A1160002109E00A4A4E
:10879000126802EBC10252689205920D40F8212046
:1087A000491C044A12689142F1D3704700630040AB
:1087B000F8000000301801208CFF020038B50400DA
:1087C0000D0001F099F8206001F0C6FA2870002031
:1087D00032BD1CB5040022210022200001F0D8FA8D
:1087E000694601A8FFF7EAFF9DF8000060709DF858
:1087F00000200199A41C2000FFF75CFE9DF80000FA
:10880000801C8DF800009DF80000C00704D59DF87D
:108810000000401C8DF800009DF8000016BD10B54A
:1088200004005548006855488269120407215348DE
:10883000FEF760FC012808D15048C06B8069400EEB
:1088400010F001002070002017E0002207214B48A3
:10885000FEF750FC49488269120407214748FEF799
:1088600049FC012801D0012007E04448C06B806921
:10887000400E10F001002070002010BDF0B58BB04C
:1088800006000C0015002800C0B2002803D0280004
:10889000C0B2112801DB012061E001A8FFF7BFFF92
:1088A000012801D101205AE02221002202AF380024
:1088B00001F06EFA3000C0B2012805D19DF8040025
:1088C00000280BD001204AE03000C0B2022805D1B8
:1088D0009DF80400002801D1012040E0AF1CF807FA
:1088E00000D57F1C3A00D2B210212448FEF702FCCA
:1088F000012833D13000C0B201280CD19DF8080006
:1089000050F001008DF808009DF8080050F00400B8
:108910008DF808000CE03000C0B2022808D0F6B292
:10892000032E05D19DF8080050F002008DF80800D4
:108930008DF80950EDB20DF10A062A002100300031
:10894000FFF7B8FDFFB2009702AB00222A210B48C7
:10895000FFF7FEFA002801D1002000E001200BB053
:10896000F0BD80B506490548FDF7BCFD002801D0E3
:10897000012000E0002002BD44000300FC1801209B
:108980008817FE1F0000000000000000000000002B
:10899000401E00BF00BF00BF0028F9DC00BF00BFC1
:1089A00000BF00BF7047200000B500BF130096460F
:1089B0009446103928BFA0E80C50FAD85FEA417CF1
:1089C00028BF0CC048BF40F8042BC90728BF20F8B7
:1089D000022B48BF00F8012B00BD00002DE9F0413B
:1089E00005000F0016000024002D01D11C2430E0EA
:1089F000342B01D01C242CE0EFF3108072B62349F5
:108A00000968491C214A116080F310882048D0F879
:108A10000080002002E0D8F82080401C1D49096831
:108A2000884201D24545F6D1EFF3108072B617495E
:108A30000968491E154A116080F3108801F0EAF9AF
:108A4000454501D11C2404E0012E02D0002E00D0A7
:108A50001F24002C0FD110480068EFF30581084354
:108A6000002808D00C480168EFF305800143B1F1FC
:108A7000F03F00D21324002C05D132003900280029
:108A800001F0DEF904002000BDE8F081386C02201E
:108A9000806B0220846B02209C18FE1F10B504001E
:108AA000002C02D001F002FA206010BD00B5081AB7
:108AB0003A49A1FB00014FF47A72002301F000FA59
:108AC00000BD37490A6837490968354B1B689A4227
:108AD00004D0344909680160436001E001604260EC
:108AE0007047F0B4304A12680668961B761E2E4A0C
:108AF00012680F68D71B7F1E284A2C4B1B68B2FBDD
:108B0000F3F24B6840681B1A18000021D317A2FB30
:108B1000004502FB015503FB0055B7420BD3244827
:108B200000681E49B0FBF1F0BE1BB6FBF0F0C117A8
:108B30002018694112E01E4800681849B0FBF1F0A6
:108B4000194909688E1BBE19B6FBF0F31000D11746
:108B5000241A8D411800D91720186941F0BC7047BC
:108B600080B5FFF7BEFF02BD4FF47A7148434FF462
:108B70007A71B0FBF1F0401C704780B5FFF7F4FF4D
:108B800001F0B6FA02BD80B5FFF7F7FF02BD72B67D
:108B900008480949086000BFFDE7000040420F0097
:108BA0004C6C022018E000E0484E01204C4E0120A1
:108BB000444E01200400FA050CED00E010B502005F
:108BC0000020002A01D11C200FE01368134CA3429F
:108BD00001D01C2009E0002907D0114B1B68EFF3DE
:108BE00005842343002B00D0042000280FD10C4B18
:108BF0001B68EFF305842343002B08D0084B1C6847
:108C0000EFF305831C43B4F1F03F00D2132000289A
:108C100002D1100001F0ACFA10BD00BF4554554D13
:108C20009C18FE1F01B58B071AD1830724D1121F90
:108C300021D351F8043BA3F1013C2CEA030C1CF0B6
:108C4000803C04BF40F8043BF1E79CFA8CFCBCFA82
:108C50008CF1C1F118018B40CB4040F8043B13E08C
:108C6000042A09D311F8013B521E00F8013B5BB105
:108C70008B07F7D1D9E7121D5AB111F8013B521EEB
:108C800000F8013B03B1F8D111001CBF002201F034
:108C900083F801BD80B50021002801D11C2115E019
:108CA00002680E4B9A4201D01C210FE00C4A126858
:108CB000EFF305831A43002A08D0094A1368EFF33B
:108CC00005821343B3F1F03F00D21321002902D1F2
:108CD00001F0DCFA0100080002BD00BF4554554D0B
:108CE0009C18FE1F08B410B585B007AB0024049390
:108CF000039400290EBF01940190491E0291009433
:108D000004AB01A9074878441A3001F0D7FB019958
:108D100001B10C70002858BF039805B010BC5DF875
:108D200008FB00BF37F8FFFF08B584B000230393AA
:108D300000290EBF01930190491E0291009301A9E1
:108D400004AB07487844183001F0B8FB019909B129
:108D500000220A70002858BF039805B000BD00BF6C
:108D6000FBF7FFFFEFF3108172B60248006881F352
:108D700010887047A06B02202DE9F84187B080462B
:108D80000C005FF0FF35002C00D02560002700E0CC
:108D90007F1C022F35D2DFF8AC08FFF717FB002845
:108DA000F9D1DFF8AC084FF4277101FB07F1405807
:108DB000002820D10120DFF898184FF4277202FB19
:108DC00007F288503D004646DFF884084FF42771CB
:108DD00001FB07F10844C0F878623A00DFF8681830
:108DE000DFF86C084FF4277303FB07F3184410F502
:108DF0001F7002F075FADFF84C08FFF705FB002D35
:108E0000C6D4002D01D5012055E0310016F11C001B
:108E1000B2689047002808D00021DFF834284FF4CA
:108E2000277045435151012045E0C02006900120A4
:108E30000590012004900C2003900C2002904FF428
:108E400080500190DFF80C084FF4805101FB05F1D0
:108E500008440090DFF8F8074FF4277101FB05F193
:108E6000084410F1C8030FF25502DFF8E4074FF48D
:108E7000277101FB05F1084410F51F71DFF8D007D9
:108E80004FF4277707FB05F73844001D02F048FA36
:108E900000280CD016F11C00B16988470021DFF8CA
:108EA000B0274FF4277045435151012003E0002CB7
:108EB00000D02560002008B0BDE8F08178B58FB003
:108EC0000400FFF74FFF8462FFF74CFFD4F8B011A6
:108ED000C0F88C10FFF746FF846AFFF743FFD0F815
:108EE0008C5002F0C3FA012801D100F077F8DFF8C6
:108EF00068076969884700F079F94FF47A70FFF7DD
:108F000033FE010003A82A69904700281AD19DF872
:108F10000C00002816D09DF80C001B2807D0A06D6F
:108F200000280FD09DF80C00A16D88470AE0A06DC5
:108F3000DFF828178842F2D0DFF81C0769698847F4
:108F400000F054F9206D54F82000DFF8141788421F
:108F500043D10021162000F077F9DFF80817DFF879
:108F600008076A6990470021172000F06DF9DFF8C3
:108F7000FC16DFF8FC066A6990470021182000F013
:108F800063F900F093FF4FF47A7148434FF47A711C
:108F9000B0FBF1F1DFF8DC066A69904704A9DFF85D
:108FA000D8060068DFF8D0269268126990470898C2
:108FB000401C08900021192000F046F90498029006
:108FC0000598019006980090079B089A099901F26C
:108FD0006C71DFF8A8066E69B0478EE770B58AB08D
:108FE000FFF7C0FE806AFFF7BDFED0F88C402BE093
:108FF000DFF8640661698847DFF88406616988479D
:109000000026DFF88006FFF7AFFD01006846226901
:10901000904700282ED19DF800000D280FD09DF814
:1090200000001B280CD09DF8000001A98855761C73
:1090300084A061698847212EE3D3012026E0FFE761
:109040009DF800001B2817D100F056FC05002800F1
:1090500000F082FE0028CBD1DFF82C16280002F0A9
:109060003FFCDFF8F40561698847DFF82006616995
:109070008847C5E7012009E0002001A9885501A91A
:10908000280002F053FC0028DED100200AB070BD99
:1090900038B50400FFF766FE856AFFF763FED0F877
:1090A0008C00AC6531BD38B5FFF75CFE846AFFF714
:1090B00059FED0F88C50DFF8A00569698847206D0B
:1090C00054F82000002823D0206D54F820000068B8
:1090D00000F0ECF80200D2B20121206D54F820001B
:1090E000006800F0C4F800220221DFF8A40500F0B7
:1090F000BEF800220321206D54F82000406800F0E3
:10910000B6F869A069698847DFF884056969884706
:1091100031BD70B505000C00FFF724FE866AFFF72D
:1091200021FED0F88C002000C0B202F024FC002800
:1091300004D0E4B2200002F029FC0400002104E085
:1091400028680078002811D0491C306D56F820009E
:1091500080680C2211FB02F2104428602868007815
:109160002200D2B29042EBD1012000E0002070BD7D
:109170007CB50500FFF7F6FD846AFFF7F3FDD0F834
:109180008C602900C9B26846FFF7C3FF00282CD0C5
:1091900000988068002815D0206D401C206500983C
:1091A0008068216D44F82100FFF77DFF009840683A
:1091B00000281AD000984068A065002000994968EE
:1091C000884712E000984068002804D100F023F896
:1091D000FFF769FF09E0DFF8800471698847002024
:1091E000009949688847FFF75EFF73BD10B5FFF728
:1091F000B9FD846AFFF7B6FDD0F88C000020206529
:10920000DFF85C04216D44F82100FFF74CFFDFF824
:109210008404A06510BD10B5FFF7A4FD846AFFF7B4
:10922000A1FDD0F88C00206D002806D00020216D13
:1092300044F82100206D401E2065DFF85804A06529
:1092400010BD00002A00000038B504000D00FFF733
:1092500089FD806AFFF786FDD0F88C30EDB22A00D8
:10926000E4B22100DFF830045B69984731BDF8B5FE
:1092700004000D001600FFF775FD806AFFF772FD10
:10928000D0F88C70F6B23200EDB22900DFF8080495
:109290007B699847200000F05FFD01002000FA681C
:1092A0009047F1BD000000000D0A0000002200E020
:1092B000521C110009B2415C0029F9D112B2D2F15D
:1092C0006402022092FBF0F0C0B270470200D2B2FA
:1092D0001209D2B20A214A43C0B210F00F0080181E
:1092E000C0B2704778B591B006A82C21FEF798FE61
:1092F000FFF738FD846AFFF735FDD0F88C50DFF8B2
:109300005803696988471E220121DFF89003FFF79F
:10931000AEFF0A220221DFF88803FFF7A8FF01222F
:109320000821DFF88003FFF7A2FF262084F855000C
:10933000002694F8550084F8540094F8541008203E
:10934000FFF782FFDFF8600369698847002005E0C6
:10935000002101AA0300DBB2D154401C0100C9B2B4
:109360001429F5DBC82168462A699047002860D196
:109370009DF8000008280AD00D2866D01B2859D077
:109380004D285DD06D285BD07F2833D0ADE094F8B8
:10939000550094F8541088422BD294F85400401E83
:1093A00084F85400761E3000C0B2022809D0052887
:1093B00007D0082805D00B2803D00E2801D011288B
:1093C00005D1761E94F85400401E84F8540094F899
:1093D00054100820FFF738FF62A06969884794F8A5
:1093E00054100820FFF730FF002001A93200D2B24C
:1093F00088541EE094F8550084F85400002600209C
:1094000005E0002101AA0300DBB2D154401C010099
:10941000C9B21429F5DB94F855100820FFF714FFA2
:10942000DFF888026969884794F855100820FFF72B
:109430000BFF97E7DFF878026969884712B070BDC3
:10944000DFF86C0269698847F8E7DFF86402696948
:1094500088479DF8040000019DF8051050FA81F03E
:10946000C0B2FFF733FF10F5FA600B909DF80700CC
:1094700000019DF8081050FA81F0C0B2FFF726FFF6
:109480000A909DF80A0000019DF80B1050FA81F037
:10949000C0B2FFF71BFF09909DF8100000019DF876
:1094A000111050FA81F0C0B2FFF710FF08909DF83C
:1094B000130000019DF8141050FA81F0C0B2FFF7BC
:1094C00005FF07909DF8160000019DF8171050FA4F
:1094D00081F0C0B2FFF7FAFE06900B98A0F26C7014
:1094E0000B9006A802F099FAA8E79DF8000002F098
:1094F000A3FA002834D03000C0B2142830DA9DF826
:1095000000008DF8020000208DF803000DF102002C
:10951000696988479DF80000303801A93200D2B24D
:10952000885494F85400401C84F85400761C300091
:10953000C0B2022809D0052807D0082805D00B287A
:1095400003D00E2801D0112805D1761C94F85400C0
:10955000401C84F8540094F854100820FFF774FE5F
:1095600067E70000200000002DE9FC4105000E0027
:109570001400002001A84F490A680260FFF7F2FBBF
:10958000806AFFF7EFFBD0F88C8000272FA0D8F877
:1095900014108847002C13D0200000F0DDFB0700DA
:1095A000701E874200D3771E39002000D8F80C20A7
:1095B0009047002002E0215C2954401CB842FAD3B5
:1095C0003048FFF7D1FA01006846D8F810209047DC
:1095D00000280CD19DF8000008280AD1012F24DBB7
:1095E0007F1E042101A8D8F80C2090471DE001201F
:1095F00024E09DF800001B2822D09DF800000D28D3
:1096000013D09DF800000A280FD09DF80000002814
:109610000BD0701E874208D201216846D8F80C2072
:1096200090479DF80000E8557F1C9DF800000D282C
:1096300001D0502FC4DB00200021E955BDE8F681A0
:109640000120FBE70C68032090F602003E000000BA
:109650002865012010680320D0E80200557F010032
:10966000B4F602009CF60200E4E8020054E60200B0
:10967000F8E8020050EB02003CF6020008B20200DB
:109680000CE90200A0860100A8F6020054BA02000C
:10969000C0A802007191000060EB020020E9020006
:1096A000A4B00200A4AD02001CF902006CE60200A6
:1096B00024F902009CFF020080B5FEF794FD01BD75
:1096C00080B5FFF764FA01BD80B501F000FFFFF738
:1096D0005EFA01BD1FB500207E480068804701206A
:1096E00002F0C4F9032400212000C0B2794A926834
:1096F000904701208DF80900774803908DF80840C5
:109700002000C0B27349C9698847B0F5C97FF7D155
:1097100002A905206F4A926890470524002804D0CA
:1097200040F29111884200D000BE2000C0B2012852
:109730000FD02000C0B202280BD02000C0B20428F5
:1097400007D02000C0B26349C9698847B0F5C97F16
:10975000F7D100208DF8060001208DF800000220CE
:109760008DF8010002208DF8020001208DF8030021
:1097700002208DF8050001208DF8040069462000C4
:10978000C0B2544A12699047002800D000BE04209D
:109790005049096E884701204E49896A88474D48DB
:1097A000C06A80474B48806D80471FBD80B5002050
:1097B000009069460620474A92699047009802BD8A
:1097C0004649097860F302014448017070474348F4
:1097D000007810F007007047F121414A1170010034
:1097E000404A127861F382023E490A7001003D4A04
:1097F000127861F3C3023B490A700100394A1278BA
:1098000061F3000237490A703649097860F3410173
:1098100034480170F020324908707047F121304A15
:1098200011703049097860F304112E480170F0205E
:109830002B490870704710B504002078002802D129
:10984000200000F008F82078012802D1200000F064
:1098500028F8002010BD38B504006568224885420C
:1098600002D30120FFF7B8FF2048854202D3012030
:10987000FFF7D4FF1E48854202D20020207307E084
:109880001C48854202D20120207301E0022020738F
:10989000FFF79DFF217B884202D2207BFFF790FFDC
:1098A00031BD38B50400A5680F48854202D20020BA
:1098B000FFF792FF0D48854202D20020FFF7AEFF6E
:1098C000FFF785FF217B814202D0207BFFF778FFE5
:1098D00031BD00001CF000000000A0411CC101408F
:1098E0000420004008200040010E270701C2EB0BB6
:1098F00001B4C4040168890938B500240020DFF8E8
:10990000C013087000251CE0DFF8B8034019027886
:109910002000C0B2002803D11000C0B2FF2803D13C
:109920002000C0B200280BD00124D2B2DFF8981377
:10993000684601F0D5FC6946DFF8840302F0BCF804
:109940006D1C0F2DE0D3DFF8780332BD7CB5060027
:109950000D00002415E0DFF86C0300190078305585
:10996000002D0DD0325DDFF86413684601F0B8FCBD
:10997000002C01D1002028706946280002F09CF8D4
:10998000641C0F2CE7D373BD002200E0521C0B00B7
:10999000DBB29A4204D2835CFF2BF7D0012000E0B7
:1099A00000207047DFF828030078C0B27047C0B2CB
:1099B00010F0C000C0B200280CD0802808D0C02809
:1099C0000AD1C9B2002901D0C24806E0C24804E069
:1099D000C24802E0C24800E0C2487047C0B210F07E
